:100000000C9457000C9469000C9469000C946900DE
:100010000C9469000C9469000C9469000C946900BC
:100020000C9469000C9469000C9469000C946900AC
:100030000C9469000C9469000C9469000C9469009C
:100040000C94F5000C9469000C9469000C94690000
:100050000C9469000C9469000C9469000C9469007C
:100060000C9469000C946900000000002500280031
:100070002B00040404040404040402020202020229
:10008000030303030303010204081020408001025C
:1000900004081020010204081020000000080002DB
:1000A000010000030407000000000000000011240C
:1000B0001FBECFEFD8E0DEBFCDBF21E0A0E0B1E0B2
:1000C00001C01D92AC30B207E1F70E943F010C94D1
:1000D000E7010C94000090E0FC01E656FF4F2491EC
:1000E000FC01EA57FF4F3491FC01EE58FF4FE491B9
:1000F000EE23C9F0222339F0233001F1A8F4213096
:1001000019F1223029F1F0E0EE0FFF1FE859FF4FFF
:10011000A591B4918FB7F894EC91611126C03095F8
:100120003E233C938FBF08952730A9F02830C9F0B3
:10013000243049F7809180008F7D03C0809180003A
:100140008F7780938000DFCF84B58F7784BDDBCF3E
:1001500084B58F7DFBCF8091B0008F778093B00006
:10016000D2CF8091B0008F7DF9CF3E2BDACF3FB751
:10017000F8948091050190910601A0910701B0913A
:10018000080126B5A89B05C02F3F19F00196A11DB7
:10019000B11D3FBFBA2FA92F982F8827BC01CD01D1
:1001A000620F711D811D911D42E0660F771F881F30
:1001B000991F4A95D1F70895CF93DF93D82FC8E0C0
:1001C0006D2F661F6627661F84E00E946B00DD0F9F
:1001D00061E086E00E946B0060E086E00E946B00B8
:1001E000C15071F7DF91CF9108951F920F920FB612
:1001F0000F9211242F933F938F939F93AF93BF93AD
:100200008091010190910201A0910301B09104013C
:100210003091000123E0230F2D3758F50196A11DE1
:10022000B11D209300018093010190930201A093DE
:100230000301B09304018091050190910601A09102
:100240000701B09108010196A11DB11D8093050120
:1002500090930601A0930701B0930801BF91AF915D
:100260009F918F913F912F910F900FBE0F901F90F4
:10027000189526E8230F0296A11DB11DD2CF7894C0
:1002800084B5826084BD84B5816084BD85B582609B
:1002900085BD85B5816085BD80916E00816080934C
:1002A0006E001092810080918100826080938100B5
:1002B00080918100816080938100809180008160C5
:1002C000809380008091B10084608093B100809120
:1002D000B00081608093B00080917A008460809348
:1002E0007A0080917A00826080937A0080917A000F
:1002F000816080937A0080917A00806880937A0090
:100300001092C1008AB180678AB9812C912C540166
:1003100083942FE2222E312C00E010E0D0E0C0E0E8
:1003200080E0A501940104C0220F331F441F551F14
:100330008A95D2F7C90140930B0190930A0120934B
:1003400009015D9880910B010E94DC0080910A01F7
:100350000E94DC00809109010E94DC005D9A0E94ED
:10036000B7002B013C018EE1C82ED12CE12CF12CE1
:100370000E94B7006419750986099709683E7340A1
:1003800081059105A8F331E0C31AD108E108F1080D
:1003900048EE440E43E0541E611C711CC114D1048C
:1003A000E104F10429F72196C033D10539F4011590
:1003B000110509F4B3CF0E940000B0CFC1018C1B1E
:1003C0009D0BC831D1050CF0ACCFCE01AACFF8946B
:0203D000FFCF5D
:00000001FF
